:100000000C945D000C9485000C9485000C94850084
:100010000C9485000C9485000C9485000C9485004C
:100020000C9485000C9485000C9485000C94F303CB
:100030000C9485000C9485000C9485000C9485002C
:100040000C9451030C9485000C94C1030C949B03F5
:100050000C9485000C9485000C9485000C9485000C
:100060000C9485000C9485000000000024002700FB
:100070002A0000000000250028002B0004040404CE
:100080000404040402020202020203030303030342
:10009000010204081020408001020408102001021F
:1000A00004081020000000080002010000030407FB
:1000B0000000000000000000CA0411241FBECFEFA2
:1000C000D8E0DEBFCDBF11E0A0E0B1E0E2E7F8E1AB
:1000D00002C005900D92AA33B107D9F722E0AAE336
:1000E000B1E001C01D92A432B207E1F710E0CDE506
:1000F000D0E004C02197FE010E94A207CC35D107B1
:10010000C9F70E9406050C94370C0C94000090E08F
:10011000FC01EC55FF4F2491FC01E057FF4F349157
:10012000FC01E458FF4FE491EE23C9F0222339F09B
:10013000233001F1A8F4213019F1223029F1F0E047
:10014000EE0FFF1FEE58FF4FA591B4918FB7F894B3
:10015000EC91611126C030953E233C938FBF0895EA
:100160002730A9F02830C9F0243049F78091800069
:100170008F7D03C0809180008F7780938000DFCFD8
:1001800084B58F7784BDDBCF84B58F7DFBCF809125
:10019000B0008F778093B000D2CF8091B0008F7D78
:1001A000F9CF3E2BDACFAF92BF92CF92DF92EF9290
:1001B000FF920F931F93CF93DF936C017B018B0111
:1001C000040F151FEB015E01AE18BF08C017D10761
:1001D00059F06991D601ED91FC910190F081E02DEB
:1001E000C6010995892B79F7C501DF91CF911F9140
:1001F0000F91FF90EF90DF90CF90BF90AF90089558
:10020000FC01538D448D252F30E0842F90E0821B1C
:10021000930B541710F0CF96089501970895FC01A1
:10022000918D828D981761F0A28DAE0FBF2FB11DF9
:100230005D968C91928D9F5F9F73928F90E0089551
:100240008FEF9FEF08952FB7F89480916D019091F3
:100250006E01A0916F01B09170012FBF8093790161
:1002600090937A01A0937B01B0937C0181E791E0A8
:100270000E940F0197FF26C02FB7F89480916D015F
:1002800090916E01A0916F01B09170012FBF4091CC
:10029000790150917A0160917B0170917C01841BFE
:1002A000950BA60BB70B40917501509176016091AB
:1002B00077017091780184179507A607B707B0F208
:1002C0008FEF9FEF0895FC01918D828D981731F08B
:1002D000828DE80FF11D858D90E008958FEF9FEFDF
:1002E0000895FC01918D228D892F90E0805C9F4FB5
:1002F000821B91098F739927089581E791E00E94ED
:10030000710121E0892B09F420E0822F089580E01B
:1003100090E0892B29F00E947D0181110C9400004E
:100320000895FC01A48DA80FB92FB11DA35ABF4F8A
:100330002C91848D90E001968F739927848FA689E4
:10034000B7892C93A089B1898C91837080648C9338
:10035000938D848D981306C00288F389E02D8081E7
:100360008F7D80830895EF92FF920F931F93CF9319
:10037000DF93EC0181E0888F9B8D8C8D98131AC0E0
:10038000E889F989808185FF15C09FB7F894EE89C7
:10039000FF896083E889F989808183708064808324
:1003A0009FBF81E090E0DF91CF911F910F91FF906F
:1003B000EF900895F62E0B8D10E00F5F1F4F0F7317
:1003C0001127E02E8C8D8E110CC00FB607FCFACFD2
:1003D000E889F989808185FFF5CFCE010E949101DE
:1003E000F1CFEB8DEC0FFD2FF11DE35AFF4FF082A3
:1003F0009FB7F8940B8FEA89FB8980818062CFCF09
:10040000CF93DF93EC01888D8823B9F0AA89BB894B
:10041000E889F9898C9185FD03C0808186FD0DC036
:100420000FB607FCF7CF8C9185FFF2CF808185FF57
:10043000EDCFCE010E949101E9CFDF91CF910895D8
:10044000CF92DF92EF92FF92CF93DF93EC01603275
:1004500082E07807CCF5653B710514F064EB70E041
:10046000898128E830E0281B310987FD3395220F68
:10047000331F220F331F6901330FEE08FF088A81F3
:1004800028E532E0281B310987FD3395220F331F01
:10049000220F331F032E000C440B550B2C193D0962
:1004A0004E095F09DB0177FF02C0B0E0A0E00E94C7
:1004B000260724EB30E040E050E00E94FC06C20E2C
:1004C000D31EE41EF51EB601E881EC3070F52981DB
:1004D00088E890E0821B910927FD9395880F991F6A
:1004E000880F991F681779077CF02A8188E592E0C8
:1004F000821B910927FD9395880F991F880F991FDB
:10050000681779070CF4CB010297880F991F4FB732
:10051000F8942E2F30E0F901EE0FFF1FE20FF31FCA
:10052000E45CFE4F928381834FBFDF91CF91FF90B8
:10053000EF90DF90CF900895CF93DF93DC018C9103
:100540008C3008F06DC0CB01FB01E057FF4F2491C8
:1005500084589F4FFC018491882399F090E0880F84
:10056000991FFC01E859FF4FC591D491FC01EE5849
:10057000FF4F859194918FB7F894E881E22BE8833F
:100580008FBF8C91282F30E0F901EE0FFF1FE20F93
:10059000F31FE45CFE4F962F9F736081607C692B94
:1005A000608311961C92119712961C9212972CE060
:1005B000622F0E949607829FB001112430E020E054
:1005C000AB01420F531FFA01EE0FFF1FE40FF51F9F
:1005D000E45CFE4F908196FD16C02F5F3F4F2C309C
:1005E000310571F781110FC01092800082E0809375
:1005F00081001092850010928400B19A80916F0062
:10060000826080936F00EC918E2F90E0FC01EE0FE2
:10061000FF1FE80FF91FE45CFE4F80818064808338
:100620008C91DF91CF910895FC0124813581232B9A
:1006300039F421E0FB018081882349F020E007C0E4
:10064000808191810E94930921E0892BB9F7822F43
:1006500008950F931F93CF93DF93EC0188819981C5
:10066000009759F02A813B812617370730F081E047
:10067000DF91CF911F910F9108958B016F5F7F4F95
:100680000E94CD08009759F0998388831B830A83C1
:100690002C813D81232B59F7FC011082E8CF80E0AB
:1006A000E7CF1F920F920FB60F9211242F933F9313
:1006B0008F939F93AF93BF9380916D0190916E0143
:1006C000A0916F01B091700130916C0123E0230F74
:1006D0002D3758F50196A11DB11D20936C01809313
:1006E0006D0190936E01A0936F01B09370018091A2
:1006F000680190916901A0916A01B0916B01019626
:10070000A11DB11D8093680190936901A0936A01B6
:10071000B0936B01BF91AF919F918F913F912F91BA
:100720000F900FBE0F901F90189526E8230F02968A
:10073000A11DB11DD2CF1F920F920FB60F9211249F
:100740002F933F934F935F936F937F938F939F93D9
:10075000AF93BF93EF93FF9381E791E00E949101E4
:10076000FF91EF91BF91AF919F918F917F916F9189
:100770005F914F913F912F910F900FBE0F901F905F
:1007800018951F920F920FB60F9211242F938F93EB
:100790009F93EF93FF93E0918101F091820180811B
:1007A000E0918701F091880182FD1BC090818091CA
:1007B0008A018F5F8F7320918B01821741F0E09146
:1007C0008A01F0E0EF58FE4F958F80938A01FF91E8
:1007D000EF919F918F912F910F900FBE0F901F90CF
:1007E00018958081F4CF1F920F920FB60F921124AB
:1007F0002F933F934F935F936F937F938F939F9329
:10080000AF93BF93CF93DF93EF93FF9380913A0120
:10081000C0913B01D0E087FF24C010928500109268
:10082000840080913A018F5F80933A0180913A0170
:10083000082E000C990B8C179D0724F480913A0127
:100840008C30C4F1809184009091850004968034AE
:100850009C4908F47AC080918400909185000496A8
:1008600076C080913A01082E000C990B8C179D07D9
:10087000C4F6E0913A018E2FEE0F990BFC01EE0FBA
:10088000FF1FE80FF91FE45CFE4F808186FFC9CF90
:10089000E0913A018E2FEE0F990BFC01EE0FFF1F36
:1008A000E80FF91FE45CFE4F808160E08F730E94C7
:1008B0008700B7CF2091840030918500E0913A0104
:1008C0008E2FEE0F990BFC01EE0FFF1FE80FF91FA3
:1008D000E45CFE4F81819281820F931F9093890087
:1008E00080938800E0913A018E2FEE0F990BFC0166
:1008F000EE0FFF1FE80FF91FE45CFE4F808186FFBB
:1009000011C0E0913A018E2FEE0F990BFC01EE0F12
:10091000FF1FE80FF91FE45CFE4F808161E08F73D9
:100920000E948700FF91EF91DF91CF91BF91AF912E
:100930009F918F917F916F915F914F913F912F91F7
:100940000F900FBE0F901F90189580E49CE9909334
:100950008900809388008FEF80933A01E3CFFC01F8
:1009600090913B019C3098F481E0890F80933B018A
:100970009083892F90E0FC01EE0FFF1FE80FF91F15
:10098000E45CFE4F88EB9BE09283818308958FEFB8
:1009900080830895E1E7F1E01382128288EE93E00C
:1009A000A0E0B0E084839583A683B7838AE091E0DA
:1009B0009183808385EC90E09587848784EC90E038
:1009C0009787868780EC90E0918B808B81EC90E01C
:1009D000938B828B82EC90E0958B848B86EC90E0FD
:1009E000978B868B118E128E138E148E87E192E078
:1009F0000E94AF0484E192E00E94AF0481E192E0A2
:100A00000E94AF048EE092E00C94AF04CF93DF938A
:100A1000CDB7DEB728970FB6F894DEBF0FBECDBFB7
:100A2000789484B5826084BD84B5816084BD85B5C9
:100A3000826085BD85B5816085BD80916E008160D5
:100A400080936E001092810080918100826080937B
:100A5000810080918100816080938100809180007D
:100A60008160809380008091B10084608093B100A8
:100A70008091B00081608093B00080917A008460A2
:100A800080937A0080917A00826080937A008091CE
:100A90007A00816080937A0080917A0080688093E8
:100AA0007A001092C100E0918101F091820182E010
:100AB0008083E0917D01F0917E011082E0917F01C1
:100AC000F09180018FEC808310928901E091850183
:100AD000F091860186E08083E0918301F0918401AA
:100AE000808180618083E0918301F0918401808125
:100AF00088608083E0918301F09184018081806827
:100B00008083E0918301F091840180818F7D8083D7
:100B100062E070E087E192E00E949C0263E070E096
:100B200084E192E00E949C0264E070E081E192E046
:100B30000E949C0265E070E08EE092E00E949C02C0
:100B400086E2A82E81E0B82E90E0692E90E0792E02
:100B500060E08BE00E94870081E791E00E947101D4
:100B6000181619060CF07CC01A8219821C821B828E
:100B70001E821D8270E060E0CE0101960E94290372
:100B800029813A8181112EC02115310519F0C90141
:100B90000E9444081A8219821E821D821C821B82B6
:100BA0000E94230197FD26C08A30910519F18F8399
:100BB00018860D811E810F5F1F4FB801CE0101966F
:100BC0000E942903882361F329813A818D819E81C6
:100BD000BE01695F7F4F820F931F0E949C091E8395
:100BE0000D83DECF1E821D826DE171E0C9010E947E
:100BF0009C09D6CFC980DA80C114D10431F00D81AF
:100C00001E81760101151105C1F568E171E0CE0183
:100C100001960E94140360916601709167016F5FF5
:100C20007F4F81110FC06AE171E0CE0101960E94F1
:100C30001403882309F457C060916601709167011D
:100C400061507109709367016093660187E192E0DA
:100C50000E94200289819A81009711F00E94440825
:100C60006114710409F474CF0E947D01882309F492
:100C70006FCF0E9400006CCF740147018FEF881A7C
:100C8000980AF7018081082E000C990B0E94F0064B
:100C9000892B91F7015011090C0D1D1DF801808160
:100CA000082E000C990B0E94F006892B31F00E15CE
:100CB0001F0518F001501109F1CF0F5F1F4FA80158
:100CC0004E195F095E834D83CE14DF0420F4B70113
:100CD000C6010E948A09E981FA818D819E81E80F0F
:100CE000F91F108292CF6CE171E0CE0101960E9453
:100CF000140360916401709165016F5F7F4F8111F2
:100D00000EC067E371E0CE0101960E9414038823B0
:100D100069F060916401709165016150710970938F
:100D200065016093640184E192E092CF6EE171E02D
:100D3000CE0101960E941403882369F0609162013C
:100D4000709163016F5F7F4F7093630160936201E5
:100D500081E192E07DCF60E271E0CE0101960E94D8
:100D60001403882399F060916201709163016150CE
:100D70007109709363016093620181E192E00E94C6
:100D8000200260E084E00E94870064CF62E271E0AC
:100D9000CE0101960E94140360916001709161017F
:100DA0006150710981110EC064E271E0CE010196BB
:100DB0000E941403882369F06091600170916101C1
:100DC0006F5F7F4F70936101609360018EE092E0EE
:100DD0003FCFBF92AF920E94A3090F900F903ACFDE
:100DE00091110C94F906803219F089508550C8F79A
:100DF0000895992788270895052E97FB1EF40094DF
:100E00000E94130757FD07D00E94650707FC03D017
:100E10004EF40C94130750954095309521953F4F13
:100E20004F4F5F4F089590958095709561957F4FD6
:100E30008F4F9F4F08950E948707A59F900DB49FE5
:100E4000900DA49F800D911D11240895B7FF0C945F
:100E50001B070E941B07821B930B08952F923F9242
:100E60004F925F926F927F928F929F92AF92BF92BA
:100E7000CF92DF92EF92FF920F931F93CF93DF9366
:100E8000CDB7DEB7CA1BDB0B0FB6F894DEBF0FBEC3
:100E9000CDBF09942A88398848885F846E847D8410
:100EA0008C849B84AA84B984C884DF80EE80FD8012
:100EB0000C811B81AA81B981CE0FD11D0FB6F89488
:100EC000DEBF0FBECDBFED010895A1E21A2EAA1B11
:100ED000BB1BFD010DC0AA1FBB1FEE1FFF1FA217EA
:100EE000B307E407F50720F0A21BB30BE40BF50BE7
:100EF000661F771F881F991F1A9469F76095709570
:100F0000809590959B01AC01BD01CF010895A29FF2
:100F1000B001B39FC001A39F700D811D1124911DCD
:100F2000B29F700D811D1124911D0895991B79E0C8
:100F300004C0991F961708F0961B881F7A95C9F769
:100F400080950895EE0FFF1F0590F491E02D099410
:100F50000F931F93CF93DF938230910510F482E0BB
:100F600090E0E0911C02F0911D0230E020E0B0E042
:100F7000A0E0309799F42115310509F44AC0281BE7
:100F8000390B24303105D8F58A819B8161157105B3
:100F900089F1FB0193838283FE0111C0408151815D
:100FA0000281138148175907E0F04817590799F44F
:100FB000109761F012960C93129713961C93329629
:100FC000CF01DF91CF911F910F91089500931C02E3
:100FD00010931D02F4CF2115310551F0421753072C
:100FE00038F0A901DB019A01BD01DF01F801C1CF91
:100FF000EF01F9CF90931D0280931C02CDCFFE012B
:10100000E20FF31F81939193225031093983288392
:10101000D7CF20911A0230911B02232B41F420914B
:1010200002013091030130931B0220931A02209198
:101030000001309101012115310541F42DB73EB772
:101040004091040150910501241B350BE0911A02D7
:10105000F0911B02E217F307A0F42E1B3F0B281799
:10106000390778F0AC014E5F5F4F2417350748F021
:101070004E0F5F1F50931B0240931A02819391936E
:101080009FCFF0E0E0E09CCFCF93DF930097E9F0B3
:10109000FC01329713821282A0911C02B0911D02B2
:1010A000ED0130E020E01097A1F420813181820F22
:1010B000931F20911A0230911B022817390709F05B
:1010C00061C0F0931B02E0931A02DF91CF91089563
:1010D000EA01CE17DF07E8F54A815B819E014115E1
:1010E0005105B1F7E901FB83EA8349915991C40F96
:1010F000D51FEC17FD0761F4808191810296840F62
:10110000951FE90199838883828193819B838A83D8
:10111000F0E0E0E012968D919C9113970097B9F55D
:101120002D913C911197CD010296820F931F209132
:101130001A0230911B022817390739F6309751F5FA
:1011400010921D0210921C02B0931B02A0931A026F
:10115000BCCFD383C28340815181840F951FC817B0
:10116000D90761F44E5F5F4F88819981480F591FFD
:10117000518340838A819B8193838283211531052A
:1011800009F0B0CFF0931D02E0931C029ECFFD0149
:10119000DC01C0CF13821282D7CFB0E0A0E0E3ED34
:1011A000F8E00C9430078C01009751F4CB010E94B9
:1011B000A8078C01C801CDB7DEB7E0E10C944C075D
:1011C000FC01E60FF71F9C0122503109E217F307DB
:1011D00008F49DC0D901CD91DC911197C617D707AE
:1011E00098F0C530D10530F3CE01049786179707E4
:1011F00008F3C61BD70B2297C193D1936D937C93B1
:10120000CF010E944408D6CF5B01AC1ABD0A4C0145
:101210008C0E9D1EA0911C02B0911D02512C412CE0
:10122000F12CE12C109731F580911A0290911B025C
:101230008815990509F05CC04616570608F058C095
:101240008091000190910101009741F48DB79EB704
:101250004091040150910501841B950BE817F90793
:1012600008F055C0F0931B02E0931A02F901718354
:101270006083A0CF8D919C91119712966C901297DC
:1012800013967C901397A815B90559F56C0142E0A7
:10129000C40ED11CCA14DB0420F1AC014A195B094D
:1012A000DA011296159780F062827382518340832F
:1012B000D9016D937C93E114F10471F0D701139679
:1012C000FC93EE93129776CF22968C0F9D1FF90117
:1012D00091838083F301EFCFF0931D02E0931C0212
:1012E00069CF4816590608F42C017D01D3019ACF25
:1012F000CB010E94A8077C01009749F0AE01B8011C
:101300000E948A09C8010E944408870153CF10E057
:1013100000E050CFFB01DC0102C001900D92415072
:101320005040D8F70895FB01DC018D9101908019A0
:101330000110D9F3990B0895FB01DC0101900D9286
:101340000020E1F70895B0E0A0E0E9EAF9E00C94AC
:101350003E07AE014B5F5F4FFA0161917191AF01A2
:1013600080912002909121020E94B909E2E00C9440
:101370005A07ABE0B0E0EFEBF9E00C942E077C01EC
:101380003B018A01FC0117821682838181FFC8C15B
:10139000CE0101965C01F7019381F30193FD8591E4
:1013A00093FF81913F01882309F453C1853239F4B9
:1013B00093FD859193FF81913F01853229F4B70117
:1013C00090E00E94A90BE7CF912C212C312CFFE15A
:1013D000F31538F08B3211F190F4803209F1833239
:1013E00029F137FC3CC020ED280F2A3050F536FE9D
:1013F00020C08AE0989E200D1124922E06C08D32C6
:1014000091F0803371F7689430F8F30193FD859182
:1014100093FF81913F018111DACF21C0689431F8A7
:10142000689432F8F2CF689433F8EFCF689434F8C8
:10143000ECCFEAE02E9E200D1124222E689435F880
:10144000E4CF8E3229F436FC04C1689436F8DDCF3F
:101450008C3619F4689437F8D8CF8836B1F2982FC3
:101460009F7D95549330E0F08336A1F18337C1F12D
:10147000833509F063C02801F2E04F0E511CF801DA
:10148000C080D180692D70E036FC02C06FEF7FEF25
:10149000C6010E94930B4C01689437F882010AC080
:1014A0000C5F1F4FFFE3F98388248394912C65011F
:1014B000E89437F833FE2DC0522C8114910471F555
:1014C000552009F468CFB70180E290E00E94A90B93
:1014D0005A94F6CFF801808189830E5F1F4FE4CFC5
:1014E0002801F2E04F0E511CF801C080D180692D17
:1014F00070E036FC02C06FEF7FEFC6010E949E0BCA
:101500004C018201D5CFB70180E290E00E94A90B87
:101510002A942814190409F0B0F7CECFF60137FC4D
:10152000859137FE81916F01B70190E00E94A90B70
:1015300051105A94F1E08F1A9108BFCF843619F0F8
:10154000893609F077C0F80137FE6BC06081718180
:10155000828193810C5F1F4FF32DFF763F2E97FF03
:1015600009C090958095709561957F4F8F4F9F4FE3
:10157000689437F82AE030E0A5010E94D90BC82E04
:10158000CA188C2C432C36FE0CC0E89440F8C914C1
:1015900040F434FE05C032FC03C0F32DFE7E4F2E16
:1015A000892C44FE95C0FE01EC0DF11D8081803335
:1015B00009F087C0242D297E422E842D8870582E54
:1015C00043FC95C040FE8FC09C2C821418F42C0C58
:1015D000922C981844FE91C0B70180E390E00E94DD
:1015E000A90B42FE09C088E790E041FE02C088E5F1
:1015F00090E0B7010E94A90BC91408F48AC0CA94EC
:10160000D12C9FEFC91AD90ACA0CDB1CF6018291B2
:101610006F01B70190E00E94A90BAC14BD04B1F7B3
:101620004FCF60817181072E000C880B990B0E5FE4
:101630001F4F92CFD32CE894D4F82AE030E08537BE
:1016400039F1232D297FD22E8F3601F148F48835C8
:10165000A9F0F701868197812B96E2E10C944A0765
:10166000803749F08837A9F7D4FE02C06894D2F8D1
:1016700020E130E00DC06894D4F8F6CF34FE03C00A
:10168000822F8660D82E20E132E002C028E030E0D0
:10169000F801D7FE0FC060817181828193810C5F58
:1016A0001F4FA5010E94D90BC82ECA183D2CE894E3
:1016B00037F867CF6081718190E080E00E5F1F4F47
:1016C000F0CF42FC02C0839478CF8394839475CF8B
:1016D000842D867809F471CFF6CFB70180E290E0CF
:1016E0000E94A90B83948214C0F3512C73CF522C07
:1016F0005818821408F46ECFF8CF842D867809F438
:101700007BCF8BE241FE80E247FC8DE2B70190E0A7
:1017100071CFB70180E390E00E94A90B9A946CCF3F
:101720008FEF9FEF99CFFC01059061507040011041
:10173000D8F7809590958E0F9F1F0895FC016150FA
:10174000704001900110D8F7809590958E0F9F1FE3
:1017500008950F931F93CF93DF93182F092FEB0159
:101760008B8181FD09C01FEF0FEF812F902FDF913B
:10177000CF911F910F91089582FF14C02E813F8158
:101780008C819D81281739073CF4E881F981CF01CC
:1017900001969983888310838E819F8101969F8310
:1017A0008E83E3CFE885F985812F0995892BA1F3F5
:1017B000DACFFA01AA27283051F1203181F1E894DB
:1017C0006F936E7F6E5F7F4F8F4F9F4FAF4FB1E034
:1017D0003ED0B4E03CD0670F781F891F9A1FA11D2F
:1017E000680F791F8A1F911DA11D6A0F711D811D30
:1017F000911DA11D20D009F468943F912AE0269FF5
:1018000011243019305D3193DEF6CF010895462F53
:101810004770405D4193B3E00FD0C9F7F6CF462F34
:101820004F70405D4A3318F0495D31FD405241939D
:1018300002D0A9F7EACFB4E0A6959795879577955A
:101840006795BA95C9F700976105710508959B01E1
:10185000AC010A2E06945795479537952795BA956A
:10186000C9F7620F731F841F951FA01D0895F89478
:02187000FFCFA8
:1018720000002402800000000000B301D300000138
:10188200000271010F0163017100770061007A00AB
:101892007800630064004E6F20766961626C652097
:0A18A200636F6D6D616E64730000EA
:00000001FF
