:100000000C947B000C94A3000C94A3000C94A3000C
:100010000C94A3000C94A3000C94A3000C94A300D4
:100020000C94A3000C94A3000C94A3000C941A0449
:100030000C94A3000C94A3000C94A3000C94A300B4
:100040000C9478030C94A3000C94E8030C94C20362
:100050000C94A3000C94A3000C94A3000C94A30094
:100060000C94A3000C94A3004E414E494E495459A0
:10007000494E46CDCCCC3D0AD7233C17B7D1387773
:10008000CC2B329595E6241FB14F0A000020410089
:1000900000C84200401C4620BCBE4CCA1B0E5AAED3
:1000A000C59D740000000800020100000304070061
:1000B0000000000000000000000000250028002BC8
:1000C0000000000000240027002A000404040404A7
:1000D00004040402020202020203030303030301F5
:1000E00002040810204080010204081020010204CC
:1000F00008102000F10411241FBECFEFD8E0DEBFAE
:10010000CDBF11E0A0E0B1E0E0ECFBE102C0059062
:100110000D92A032B107D9F722E0A0E2B1E001C010
:100120001D92A130B207E1F710E0CBE7D0E004C0A8
:100130002197FE010E944709CA37D107C9F70E94DB
:1001400029050C94DE0D0C940000CF93DF93DC01A5
:100150008C918C3008F06DC0CB01FB01E152FF4F58
:10016000249185539F4FFC018491882399F090E05E
:10017000880F991FFC01EF53FF4FC591D491FC01EB
:10018000E954FF4F859194918FB7F894E881E22B61
:10019000E8838FBF8C91282F30E0F901EE0FFF1F0D
:1001A000E20FF31FE95DFE4F962F9F736081607C25
:1001B000692B608311961C92119712961C921297CC
:1001C0002CE0622F0E943B09829FB001112430E095
:1001D00020E0AB01420F531FFA01EE0FFF1FE40FA7
:1001E000F51FE95DFE4F908196FD16C02F5F3F4FD2
:1001F0002C30310571F781110FC01092800082E020
:10020000809381001092850010928400B19A8091B1
:100210006F00826080936F00EC918E2F90E0FC0164
:10022000EE0FFF1FE80FF91FE95DFE4F808180642C
:1002300080838C91DF91CF91089590E0FC01ED5582
:10024000FF4F2491FC01E152FF4F3491FC01E55333
:10025000FF4FE491EE23C9F0222339F0233001F15E
:10026000A8F4213019F1223029F1F0E0EE0FFF1F40
:10027000E954FF4FA591B4918FB7F894EC916111B7
:1002800026C030953E233C938FBF08952730A9F0B8
:100290002830C9F0243049F7809180008F7D03C059
:1002A000809180008F7780938000DFCF84B58F7737
:1002B00084BDDBCF84B58F7DFBCF8091B0008F777D
:1002C0008093B000D2CF8091B0008F7DF9CF3E2BCC
:1002D000DACFAF92BF92CF92DF92EF92FF920F935D
:1002E0001F93CF93DF936C017B018B01040F151FCC
:1002F000EB015E01AE18BF08C017D10759F0699134
:10030000D601ED91FC910190F081E02DC601099597
:10031000892B79F7C501DF91CF911F910F91FF9044
:10032000EF90DF90CF90BF90AF900895FC01538D78
:10033000448D252F30E0842F90E0821B930B5417BF
:1003400010F0CF96089501970895FC01918D828D4C
:10035000981761F0A28DAE0FBF2FB11D5D968C91E5
:10036000928D9F5F9F73928F90E008958FEF9FEF24
:1003700008952FB7F89480914B0190914C01A09172
:100380004D01B0914E012FBF8093570190935801BA
:10039000A0935901B0935A018FE491E00E94A50106
:1003A00097FF26C02FB7F89480914B0190914C0194
:1003B000A0914D01B0914E012FBF40915701509136
:1003C00058016091590170915A01841B950BA60B3D
:1003D000B70B4091530150915401609155017091B8
:1003E000560184179507A607B707B0F28FEF9FEF66
:1003F0000895FC01918D828D981731F0828DE80F60
:10040000F11D858D90E008958FEF9FEF0895FC0119
:10041000918D228D892F90E0805C9F4F821B9109E6
:100420008F73992708958FE491E00E94070221E0DD
:10043000892B09F420E0822F089580E090E0892B39
:1004400029F00E94130281110C9400000895FC0110
:10045000A48DA80FB92FB11DA35ABF4F2C91848D25
:1004600090E001968F739927848FA689B7892C9382
:10047000A089B1898C91837080648C93938D848DD5
:10048000981306C00288F389E02D80818F7D8083D8
:100490000895EF92FF920F931F93CF93DF93EC0198
:1004A00081E0888F9B8D8C8D98131AC0E889F9891B
:1004B000808185FF15C09FB7F894EE89FF8960831E
:1004C000E889F98980818370806480839FBF81E09F
:1004D00090E0DF91CF911F910F91FF90EF900895E1
:1004E000F62E0B8D10E00F5F1F4F0F731127E02EBC
:1004F0008C8D8E110CC00FB607FCFACFE889F989F4
:10050000808185FFF5CFCE010E942702F1CFEB8DD0
:10051000EC0FFD2FF11DE35AFF4FF0829FB7F894C7
:100520000B8FEA89FB8980818062CFCFCF93DF93E5
:10053000EC01888D8823B9F0AA89BB89E889F989FB
:100540008C9185FD03C0808186FD0DC00FB607FC30
:10055000F7CF8C9185FFF2CF808185FFEDCFCE0163
:100560000E942702E9CFDF91CF910895FC0180819D
:100570009181009711F00C94E90908950F931F934E
:10058000CF93DF93EC0188819981009759F02A81FC
:100590003B812617370730F081E0DF91CF911F9123
:1005A0000F9108958B016F5F7F4F0E94720A009731
:1005B00059F0998388831B830A832C813D81232BE7
:1005C00059F7FC011082E8CF80E0E7CFEF92FF926D
:1005D0000F931F93CF93DF93EC017B018A01BA0144
:1005E0000E94BE0228813981811114C02115310574
:1005F00019F0C9010E94E909198218821D821C8222
:100600001B821A82CE01DF91CF911F910F91FF9033
:10061000EF9008951D830C83B701C9010E94430B1D
:10062000F1CFAF92BF92CF92DF92EF92FF920F93F2
:100630001F93CF93DF93EC016B015A0179012417CB
:10064000350720F48B2D5901E42EF82E19821882DB
:100650001B821A821D821C8250E040E06FE171E033
:10066000CE010E94E602D60114960D911C91A016AF
:10067000B10628F5E016F10608F48701D601ED91E0
:10068000FC911197E00FF11FF08010826D917C9129
:100690006A0D7B1D61157105F1F0FB0101900020D1
:1006A000E9F73197AF01461B570BCE010E94E602D6
:1006B000F60180819181080F191FD801FC92CE01AB
:1006C000DF91CF911F910F91FF90EF90DF90CF902E
:1006D000BF90AF90089588819981009711F00E9492
:1006E000E909198218821D821C821B821A82E0CFBE
:1006F0001F920F920FB60F9211242F933F938F9357
:100700009F93AF93BF9380914B0190914C01A09127
:100710004D01B0914E013091260123E0230F2D377A
:1007200058F50196A11DB11D2093260180934B0120
:1007300090934C01A0934D01B0934E018091220102
:1007400090912301A0912401B09125010196A11D52
:10075000B11D8093220190932301A0932401B093B3
:100760002501BF91AF919F918F913F912F910F9054
:100770000FBE0F901F90189526E8230F0296A11D1B
:10078000B11DD2CF1F920F920FB60F9211242F934B
:100790003F934F935F936F937F938F939F93AF9309
:1007A000BF93EF93FF938FE491E00E942702FF91A4
:1007B000EF91BF91AF919F918F917F916F915F91D9
:1007C0004F913F912F910F900FBE0F901F90189552
:1007D0001F920F920FB60F9211242F938F939F9316
:1007E000EF93FF93E0915F01F09160018081E091D0
:1007F0006501F091660182FD1BC0908180916801C6
:100800008F5F8F7320916901821741F0E091680139
:10081000F0E0E15BFE4F958F80936801FF91EF91CF
:100820009F918F912F910F900FBE0F901F90189551
:100830008081F4CF1F920F920FB60F9211242F9345
:100840003F934F935F936F937F938F939F93AF9358
:10085000BF93CF93DF93EF93FF9380912001C091DB
:100860002101D0E087FF24C01092850010928400FF
:10087000809120018F5F8093200180912001082EBC
:10088000000C990B8C179D0724F4809120018C306B
:10089000C4F18091840090918500049680349C4935
:1008A00008F47AC08091840090918500049676C007
:1008B00080912001082E000C990B8C179D07C4F61F
:1008C000E09120018E2FEE0F990BFC01EE0FFF1F20
:1008D000E80FF91FE95DFE4F808186FFC9CFE091E7
:1008E00020018E2FEE0F990BFC01EE0FFF1FE80F7A
:1008F000F91FE95DFE4F808160E08F730E941D014A
:10090000B7CF2091840030918500E09120018E2F97
:10091000EE0F990BFC01EE0FFF1FE80FF91FE95DC9
:10092000FE4F81819281820F931F90938900809363
:100930008800E09120018E2FEE0F990BFC01EE0F45
:10094000FF1FE80FF91FE95DFE4F808186FF11C090
:10095000E09120018E2FEE0F990BFC01EE0FFF1F8F
:10096000E80FF91FE95DFE4F808161E08F730E94FF
:100970001D01FF91EF91DF91CF91BF91AF919F91B9
:100980008F917F916F915F914F913F912F910F9038
:100990000FBE0F901F90189580E49CE990938900FA
:1009A000809388008FEF80932001E3CFFC0190912A
:1009B00021019C3098F481E0890F8093210190837C
:1009C000892F90E0FC01EE0FFF1FE80FF91FE95D92
:1009D000FE4F88EB9BE09283818308958FEF8083A5
:1009E0000895EFE4F1E01382128288EE93E0A0E034
:1009F000B0E084839583A683B7838AE091E09183F6
:100A0000808385EC90E09587848784EC90E09787DD
:100A1000868780EC90E0918B808B81EC90E0938BCB
:100A2000828B82EC90E0958B848B86EC90E0978BA8
:100A3000868B118E128E138E148E82EF91E00E949F
:100A4000D6048FEE91E00E94D6048CEE91E00C94D7
:100A5000D604CF93DF93CDB7DEB72C970FB6F894BB
:100A6000DEBF0FBECDBF789484B5826084BD84B5EF
:100A7000816084BD85B5826085BD85B5816085BD99
:100A800080916E00816080936E0010928100809151
:100A900081008260809381008091810081608093D9
:100AA0008100809180008160809380008091B100FE
:100AB00084608093B1008091B00081608093B00029
:100AC00080917A00846080937A0080917A008260BD
:100AD00080937A0080917A00816080937A0080917F
:100AE0007A00806880937A001092C100E0915F01E3
:100AF000F091600182E08083E0915B01F0915C0104
:100B00001082E0915D01F0915E018FEC8083109284
:100B10006701E0916301F091640186E08083E091D8
:100B20006101F0916201808180618083E0916101C7
:100B3000F0916201808188608083E0916101F09191
:100B40006201808180688083E0916101F09162019F
:100B500080818F7D808362E070E082EF91E00E946F
:100B6000A50063E070E08FEE91E00E94A50064E0D4
:100B700070E08CEE91E00E94A50088E1E82E81E013
:100B8000F82E90E0C92E90E0D92E8FE491E00E94DB
:100B900007021816190684F0FF92EF920E944A0B82
:100BA0000F900F90C114D10481F30E941302882387
:100BB00061F30E940000E9CF8FE491E00E940702F8
:100BC000181619067CF718861F821A8619861C8645
:100BD0001B8650E040E06FE171E0CE0107960E9475
:100BE000E6020E94B9010B851C8597FD1CC08A3066
:100BF0009105C9F089831A820F5F1F4FB801CE019A
:100C000007960E94BE02882361F32F8138858B8569
:100C10009C85BE016F5F7F4F820F931F0E94430B25
:100C20001C870B87DECF012BB1F10F8118856CE299
:100C300070E0C8010E94380B009769F19C01201BED
:100C4000310B8901980150E040E0BE01695F7F4FA0
:100C5000CE0101960E941103CE0101960E94B602B8
:100C60002B853C85A8014F5F5F4FBE01695F7F4FB9
:100C7000CE0101960E94110389819A81009711F09B
:100C80000E944E06CE0101960E94B602CE01079642
:100C90000E94B60287CF0FEF1FEFD4CF66277727CA
:100CA0000C945206B0E0A0E0E8E5F6E00C94FB08F6
:100CB0005C017B016115710519F0DB018D939C933B
:100CC00085010F5F1F4FF501D0818D2F90E00E94AD
:100CD000A2076C01892BB9F5DD32B9F50F5F1F4F03
:100CE000D5011196DC91C1E05801F1E0AF1AB108CD
:100CF00043E050E060E770E0C5010E94AB07892B3C
:100D000069F5680182E0C80ED11C45E050E06BE651
:100D100070E0C6010E94AB07892B21F4680197E0BF
:100D2000C90ED11CE114F10419F0D701CD92DC9267
:100D300060E070E080E89FEFC111FFC060E070E00C
:100D400080E89FE7FAC05801BBCFDB3229F4850168
:100D50000E5F1F4FF501D181C0E0C6CF43E050E0E8
:100D600068E670E0C5010E94AB07892BE9F0F80145
:100D700010E000E020E030E0A9015F01B0ED8B2E33
:100D80008D0E89E08815C8F19C2E689491F88C2FFF
:100D90008870C2FF16C0811102C00F5F1F4F3196CD
:100DA000D501DC91C92DE9CFE114F10429F00E5FE2
:100DB0001F4FF7011183008360E070E080EC9FE734
:100DC000BCC0882311F001501109A5E0B0E00E94D9
:100DD000EA089B01AC01220F331F441F551F280D49
:100DE000311D411D511D283999E93907490799E1FC
:100DF0005907A8F2C6609C2ED2CFAEEF8A1206C069
:100E0000C3FD3CC09C2E689493F8C9CFDF7DD534D8
:100E1000A9F580818D3239F4C061DF01129681819C
:100E200062E070E006C0DF018B32C1F3119661E031
:100E300070E080535D01A61AB70A8A30F8F4E0E842
:100E4000CE16ECE0DE065CF4B601660F771F660F87
:100E5000771FC60ED71ECC0CDD1CC80ED11C5D0141
:100E6000FFEFAF1ABF0A8C9180538A30A8F1C4FFFC
:100E700003C0D194C194D1080C0D1D1DC1FF09C040
:100E8000E114F10431F081E0A81AB108D701AD9264
:100E9000BC92CA01B9010E94C807C370C33009F4EB
:100EA00090584B015C0120E030E0A9010E94C3078B
:100EB000882309F440C0CFE9D0E017FF05C01195A1
:100EC00001951109C7E8D0E06E01B8E1CB1AD1084D
:100ED00080E2E82EF12C0FC0D501B1CFFE012591A3
:100EE0003591459154910E191F09C501B4010E9415
:100EF00029084B015C01D501C4010E151F0574F7CB
:100F00002497F594E794CC16DD06A9F78A2F880F6D
:100F10008B2F881F8F3F49F020E030E0A901C501E9
:100F2000B4010E94C307811106C082E290E0909351
:100F3000F6018093F501C501B401CDB7DEB7ECE051
:100F40000C94170991110C949608803219F089506D
:100F50008550C8F70895FB01DC014150504088F0EE
:100F60008D9181341CF08B350CF4805E6591613479
:100F70001CF06B350CF4605E861B611171F3990BEC
:100F80000895881BFCCF0E94050808F481E00895AD
:100F9000E89409C097FB3EF4909580957095619513
:100FA0007F4F8F4F9F4F9923A9F0F92F96E9BB27C9
:100FB0009395F695879577956795B795F111F8CF45
:100FC000FAF4BB0F11F460FF1BC06F5F7F4F8F4FB0
:100FD0009F4F16C0882311F096E911C0772321F0A6
:100FE0009EE8872F762F05C0662371F096E8862F3E
:100FF00070E060E02AF09A95660F771F881FDAF795
:10100000880F9695879597F90895990F0008550FC1
:10101000AA0BE0E8FEEF16161706E807F907C0F07E
:1010200012161306E407F50798F0621B730B840B86
:10103000950B39F40A2661F0232B242B252B21F460
:1010400008950A2609F4A140A6958FEF811D811D00
:1010500008950E943C080C94B0080E94A20838F041
:101060000E94A90820F0952311F00C9499080C9483
:101070009F0811240C94E4080E94C10870F3959F06
:10108000C1F3950F50E0551F629FF001729FBB277F
:10109000F00DB11D639FAA27F00DB11DAA1F649F1B
:1010A0006627B00DA11D661F829F2227B00DA11DCE
:1010B000621F739FB00DA11D621F839FA00D611D54
:1010C000221F749F3327A00D611D231F849F600D75
:1010D000211D822F762F6A2F11249F5750409AF09E
:1010E000F1F088234AF0EE0FFF1FBB1F661F771F2A
:1010F000881F91505040A9F79E3F510580F00C94F5
:1011000099080C94E4085F3FE4F3983ED4F3869585
:1011100077956795B795F795E7959F5FC1F7FE2B94
:10112000880F911D9695879597F908959927882797
:10113000089597F99F6780E870E060E008959FEF59
:1011400080EC089500240A9416161706180609065E
:10115000089500240A94121613061406050608952D
:10116000092E0394000C11F4882352F0BB0F40F4B5
:10117000BF2B11F460FF04C06F5F7F4F8F4F9F4FF5
:10118000089557FD9058440F551F59F05F3F71F077
:101190004795880F97FB991F61F09F3F79F08795DE
:1011A0000895121613061406551FF2CF4695F1DF67
:1011B00008C0161617061806991FF1CF86957105F7
:1011C000610508940895E894BB2766277727CB012B
:1011D00097F908950E942C09A59F900DB49F900D3A
:1011E000A49F800D911D112408952F923F924F923C
:1011F0005F926F927F928F929F92AF92BF92CF92A7
:10120000DF92EF92FF920F931F93CF93DF93CDB7AF
:10121000DEB7CA1BDB0B0FB6F894DEBF0FBECDBF27
:1012200009942A88398848885F846E847D848C84F8
:101230009B84AA84B984C884DF80EE80FD800C8101
:101240001B81AA81B981CE0FD11D0FB6F894DEBFE4
:101250000FBECDBFED010895A29FB001B39FC001A5
:10126000A39F700D811D1124911DB29F700D811DD2
:101270001124911D0895991B79E004C0991F9617B8
:1012800008F0961B881F7A95C9F780950895EE0F90
:10129000FF1F0590F491E02D09940F931F93CF93B6
:1012A000DF938230910510F482E090E0E091F90143
:1012B000F091FA0130E020E0B0E0A0E0309799F43E
:1012C0002115310509F44AC0281B390B243031059A
:1012D000D8F58A819B816115710589F1FB019383A2
:1012E0008283FE0111C04081518102811381481720
:1012F0005907E0F04817590799F4109761F01296D2
:101300000C93129713961C933296CF01DF91CF91D5
:101310001F910F9108950093F9011093FA01F4CFF2
:101320002115310551F04217530738F0A901DB01AF
:101330009A01BD01DF01F801C1CFEF01F9CF909310
:10134000FA018093F901CDCFFE01E20FF31F8193E3
:1013500091932250310939832883D7CF2091F70107
:101360003091F801232B41F42091020130910301C7
:101370003093F8012093F701209100013091010191
:101380002115310541F42DB73EB74091040150912C
:101390000501241B350BE091F701F091F801E217EC
:1013A000F307A0F42E1B3F0B2817390778F0AC0188
:1013B0004E5F5F4F2417350748F04E0F5F1F509365
:1013C000F8014093F701819391939FCFF0E0E0E023
:1013D0009CCFCF93DF930097E9F0FC013297138203
:1013E0001282A091F901B091FA01ED0130E020E004
:1013F0001097A1F420813181820F931F2091F70172
:101400003091F8012817390709F061C0F093F8010D
:10141000E093F701DF91CF910895EA01CE17DF073E
:10142000E8F54A815B819E0141155105B1F7E9015B
:10143000FB83EA8349915991C40FD51FEC17FD072F
:1014400061F4808191810296840F951FE90199834F
:101450008883828193819B838A83F0E0E0E0129607
:101460008D919C9113970097B9F52D913C9111970F
:10147000CD010296820F931F2091F7013091F80160
:101480002817390739F6309751F51092FA01109262
:10149000F901B093F801A093F701BCCFD383C283C5
:1014A00040815181840F951FC817D90761F44E5FA1
:1014B0005F4F88819981480F591F518340838A81EA
:1014C0009B81938382832115310509F0B0CFF0937E
:1014D000FA01E093F9019ECFFD01DC01C0CF138238
:1014E0001282D7CFB0E0A0E0E8E7FAE00C94F7086A
:1014F0008C01009751F4CB010E944D098C01C80169
:10150000CDB7DEB7E0E10C941309FC01E60FF71F3D
:101510009C0122503109E217F30708F49DC0D9015C
:10152000CD91DC911197C617D70798F0C530D1053A
:1015300030F3CE0104978617970708F3C61BD70B25
:101540002297C193D1936D937C93CF010E94E909B7
:10155000D6CF5B01AC1ABD0A4C018C0E9D1EA0912A
:10156000F901B091FA01512C412CF12CE12C10978A
:1015700031F58091F7019091F8018815990509F0EE
:101580005CC04616570608F058C080910001909143
:101590000101009741F48DB79EB74091040150912D
:1015A0000501841B950BE817F90708F055C0F09367
:1015B000F801E093F701F90171836083A0CF8D9169
:1015C0009C91119712966C90129713967C9013979A
:1015D000A815B90559F56C0142E0C40ED11CCA1416
:1015E000DB0420F1AC014A195B09DA011296159768
:1015F00080F06282738251834083D9016D937C9322
:10160000E114F10471F0D7011396FC93EE93129755
:1016100076CF22968C0F9D1FF90191838083F30171
:10162000EFCFF093FA01E093F90169CF481659061C
:1016300008F42C017D01D3019ACFCB010E944D0902
:101640007C01009749F0AE01B8010E942F0BC80140
:101650000E94E909870153CF10E000E050CFFB0161
:10166000DC0102C001900D9241505040D8F708951E
:10167000FC018191861721F08823D9F799270895D5
:101680003197CF010895FB01DC0101900D920020FC
:10169000E1F70895B0E0A0E0E0E5FBE00C94050977
:1016A000AE014B5F5F4FFA0161917191AF01809183
:1016B000FD019091FE010E94600BE2E00C94210973
:1016C000ABE0B0E0E6E6FBE00C94F5087C013B0102
:1016D0008A01FC0117821682838181FFC8C1CE0175
:1016E00001965C01F7019381F30193FD859193FFCE
:1016F00081913F01882309F453C1853239F493FD68
:10170000859193FF81913F01853229F4B70190E0E3
:101710000E94500DE7CF912C212C312CFFE1F315C5
:1017200038F08B3211F190F4803209F1833229F1D3
:1017300037FC3CC020ED280F2A3050F536FE20C083
:101740008AE0989E200D1124922E06C08D3291F0D1
:10175000803371F7689430F8F30193FD859193FF1E
:1017600081913F018111DACF21C0689431F86894EA
:1017700032F8F2CF689433F8EFCF689434F8ECCFB6
:10178000EAE02E9E200D1124222E689435F8E4CF35
:101790008E3229F436FC04C1689436F8DDCF8C36DD
:1017A00019F4689437F8D8CF8836B1F2982F9F7D16
:1017B00095549330E0F08336A1F18337C1F183353E
:1017C00009F063C02801F2E04F0E511CF801C080FF
:1017D000D180692D70E036FC02C06FEF7FEFC6014B
:1017E0000E943A0D4C01689437F882010AC00C5FE0
:1017F0001F4FFFE3F98388248394912C6501E894BB
:1018000037F833FE2DC0522C8114910471F5552008
:1018100009F468CFB70180E290E00E94500D5A941D
:10182000F6CFF801808189830E5F1F4FE4CF280136
:10183000F2E04F0E511CF801C080D180692D70E09C
:1018400036FC02C06FEF7FEFC6010E94450D4C01D0
:101850008201D5CFB70180E290E00E94500D2A941A
:101860002814190409F0B0F7CECFF60137FC8591A2
:1018700037FE81916F01B70190E00E94500D511029
:101880005A94F1E08F1A9108BFCF843619F0893647
:1018900009F077C0F80137FE6BC0608171818281E9
:1018A00093810C5F1F4FF32DFF763F2E97FF09C0EA
:1018B00090958095709561957F4F8F4F9F4F68945D
:1018C00037F82AE030E0A5010E94800DC82ECA1822
:1018D0008C2C432C36FE0CC0E89440F8C91440F41C
:1018E00034FE05C032FC03C0F32DFE7E4F2E892C42
:1018F00044FE95C0FE01EC0DF11D8081803309F09E
:1019000087C0242D297E422E842D8870582E43FCBA
:1019100095C040FE8FC09C2C821418F42C0C922C85
:10192000981844FE91C0B70180E390E00E94500DEA
:1019300042FE09C088E790E041FE02C088E590E0E1
:10194000B7010E94500DC91408F48AC0CA94D12C62
:101950009FEFC91AD90ACA0CDB1CF60182916F01EC
:10196000B70190E00E94500DAC14BD04B1F74FCF09
:1019700060817181072E000C880B990B0E5F1F4F41
:1019800092CFD32CE894D4F82AE030E0853739F1AF
:10199000232D297FD22E8F3601F148F48835A9F006
:1019A000F701868197812B96E2E10C94110980372B
:1019B00049F08837A9F7D4FE02C06894D2F820E134
:1019C00030E00DC06894D4F8F6CF34FE03C0822F07
:1019D0008660D82E20E132E002C028E030E0F80135
:1019E000D7FE0FC060817181828193810C5F1F4F90
:1019F000A5010E94800DC82ECA183D2CE89437F826
:101A000067CF6081718190E080E00E5F1F4FF0CF63
:101A100042FC02C0839478CF8394839475CF842D45
:101A2000867809F471CFF6CFB70180E290E00E948A
:101A3000500D83948214C0F3512C73CF522C58183C
:101A4000821408F46ECFF8CF842D867809F47BCF0A
:101A50008BE241FE80E247FC8DE2B70190E071CF5E
:101A6000B70180E390E00E94500D9A946CCF8FEF05
:101A70009FEF99CFFC010590615070400110D8F79D
:101A8000809590958E0F9F1F0895FC0161507040C6
:101A900001900110D8F7809590958E0F9F1F0895A3
:101AA0000F931F93CF93DF93182F092FEB018B8197
:101AB00081FD09C01FEF0FEF812F902FDF91CF9194
:101AC0001F910F91089582FF14C02E813F818C8158
:101AD0009D81281739073CF4E881F981CF010196EF
:101AE0009983888310838E819F8101969F838E8343
:101AF000E3CFE885F985812F0995892BA1F3DACF0A
:101B0000FA01AA27283051F1203181F1E8946F932E
:101B10006E7F6E5F7F4F8F4F9F4FAF4FB1E03ED0D4
:101B2000B4E03CD0670F781F891F9A1FA11D680F72
:101B3000791F8A1F911DA11D6A0F711D811D911DA5
:101B4000A11D20D009F468943F912AE0269F11241A
:101B50003019305D3193DEF6CF010895462F47707E
:101B6000405D4193B3E00FD0C9F7F6CF462F4F70D9
:101B7000405D4A3318F0495D31FD4052419302D037
:101B8000A9F7EACFB4E0A6959795879577956795DD
:101B9000BA95C9F700976105710508959B01AC01DD
:101BA0000A2E06945795479537952795BA95C9F704
:101BB000620F731F841F951FA01D0895F894FFCF17
:101BC0000000010280000000000049026901960146
:101BD00096020702A501F9016E6F2064617461002D
:00000001FF
