:100000000C947B000C94A3000C94A3000C94A3000C
:100010000C94A3000C94A3000C94A3000C94A300D4
:100020000C94A3000C94A3000C94A3000C9446041D
:100030000C94A3000C94A3000C94A3000C94A300B4
:100040000C94A4030C94A3000C9414040C94EE03DD
:100050000C94A3000C94A3000C94A3000C94A30094
:100060000C94A3000C94A3004E414E494E495459A0
:10007000494E46CDCCCC3D0AD7233C17B7D1387773
:10008000CC2B329595E6241FB14F0A000020410089
:1000900000C84200401C4620BCBE4CCA1B0E5AAED3
:1000A000C59D740000000800020100000304070061
:1000B0000000000000000000000000250028002BC8
:1000C0000000000000240027002A000404040404A7
:1000D00004040402020202020203030303030301F5
:1000E00002040810204080010204081020010204CC
:1000F000081020001D0511241FBECFEFD8E0DEBF81
:10010000CDBF11E0A0E0B1E0E4E0FAE102C005906B
:100110000D92A432B107D9F722E0A4E2B1E001C008
:100120001D92A530B207E1F710E0CBE7D0E004C0A4
:100130002197FE010E94C70ACA37D107C9F70E945A
:1001400055050C94000D0C940000CF93DF93DC0157
:100150008C918C3008F06DC0CB01FB01E152FF4F58
:10016000249185539F4FFC018491882399F090E05E
:10017000880F991FFC01EF53FF4FC591D491FC01EB
:10018000E954FF4F859194918FB7F894E881E22B61
:10019000E8838FBF8C91282F30E0F901EE0FFF1F0D
:1001A000E20FF31FEF5CFE4F962F9F736081607C20
:1001B000692B608311961C92119712961C921297CC
:1001C0002CE0622F0E94BB0A829FB001112430E014
:1001D00020E0AB01420F531FFA01EE0FFF1FE40FA7
:1001E000F51FEF5CFE4F908196FD16C02F5F3F4FCD
:1001F0002C30310571F781110FC01092800082E020
:10020000809381001092850010928400B19A8091B1
:100210006F00826080936F00EC918E2F90E0FC0164
:10022000EE0FFF1FE80FF91FEF5CFE4F8081806427
:1002300080838C91DF91CF91089590E0FC01ED5582
:10024000FF4F2491FC01E152FF4F3491FC01E55333
:10025000FF4FE491EE23C9F0222339F0233001F15E
:10026000A8F4213019F1223029F1F0E0EE0FFF1F40
:10027000E954FF4FA591B4918FB7F894EC916111B7
:1002800026C030953E233C938FBF08952730A9F0B8
:100290002830C9F0243049F7809180008F7D03C059
:1002A000809180008F7780938000DFCF84B58F7737
:1002B00084BDDBCF84B58F7DFBCF8091B0008F777D
:1002C0008093B000D2CF8091B0008F7DF9CF3E2BCC
:1002D000DACFAF92BF92CF92DF92EF92FF920F935D
:1002E0001F93CF93DF936C017B018B01040F151FCC
:1002F000EB015E01AE18BF08C017D10759F0699134
:10030000D601ED91FC910190F081E02DC601099597
:10031000892B79F7C501DF91CF911F910F91FF9044
:10032000EF90DF90CF90BF90AF900895FC01538D78
:10033000448D252F30E0842F90E0821B930B5417BF
:1003400010F0CF96089501970895FC01918D828D4C
:10035000981761F0A28DAE0FBF2FB11D5D968C91E5
:10036000928D9F5F9F73928F90E008958FEF9FEF24
:1003700008952FB7F8948091550190915601A0915E
:100380005701B09158012FBF809361019093620192
:10039000A0936301B093640189E591E00E94A501F7
:1003A00097FF26C02FB7F894809155019091560180
:1003B000A0915701B09158012FBF40916101509118
:1003C00062016091630170916401841B950BA60B1F
:1003D000B70B40915D0150915E0160915F0170919A
:1003E000600184179507A607B707B0F28FEF9FEF5C
:1003F0000895FC01918D828D981731F0828DE80F60
:10040000F11D858D90E008958FEF9FEF0895FC0119
:10041000918D228D892F90E0805C9F4F821B9109E6
:100420008F739927089589E591E00E94070221E0E2
:10043000892B09F420E0822F089580E090E0892B39
:1004400029F00E94130281110C9400000895FC0110
:10045000A48DA80FB92FB11DA35ABF4F2C91848D25
:1004600090E001968F739927848FA689B7892C9382
:10047000A089B1898C91837080648C93938D848DD5
:10048000981306C00288F389E02D80818F7D8083D8
:100490000895EF92FF920F931F93CF93DF93EC0198
:1004A00081E0888F9B8D8C8D98131AC0E889F9891B
:1004B000808185FF15C09FB7F894EE89FF8960831E
:1004C000E889F98980818370806480839FBF81E09F
:1004D00090E0DF91CF911F910F91FF90EF900895E1
:1004E000F62E0B8D10E00F5F1F4F0F731127E02EBC
:1004F0008C8D8E110CC00FB607FCFACFE889F989F4
:10050000808185FFF5CFCE010E942702F1CFEB8DD0
:10051000EC0FFD2FF11DE35AFF4FF0829FB7F894C7
:100520000B8FEA89FB8980818062CFCFCF93DF93E5
:10053000EC01888D8823B9F0AA89BB89E889F989FB
:100540008C9185FD03C0808186FD0DC00FB607FC30
:10055000F7CF8C9185FFF2CF808185FFEDCFCE0163
:100560000E942702E9CFDF91CF910895CF92DF92C9
:10057000EF92FF92CF93DF93EC01603282E0780735
:10058000CCF5653B710514F064EB70E0898128E8D7
:1005900030E0281B310987FD3395220F331F220FCE
:1005A000331F6901330FEE08FF088A8128E532E026
:1005B000281B310987FD3395220F331F220F331F6C
:1005C000032E000C440B550B2C193D094E095F09F5
:1005D000DB0177FF02C0B0E0A0E00E944B0A24EBF1
:1005E00030E040E050E00E94210AC20ED31EE41E1B
:1005F000F51EB601E881EC3070F5298188E890E0BD
:10060000821B910927FD9395880F991F880F991FC9
:10061000681779077CF02A8188E592E0821B9109AE
:1006200027FD9395880F991F880F991F68177907E1
:100630000CF4CB010297880F991F4FB7F8942E2F17
:1006400030E0F901EE0FFF1FE20FF31FEF5CFE4FEA
:10065000928381834FBFDF91CF91FF90EF90DF9026
:10066000CF9008959B012A5031098217930714F403
:1006700001960895665F7F4F681779070CF401971C
:1006800008950F931F93CF93DF93EC018881998195
:10069000009759F02A813B812617370730F081E017
:1006A000DF91CF911F910F9108958B016F5F7F4F65
:1006B0000E94280C009759F0998388831B830A8332
:1006C0002C813D81232B59F7FC011082E8CF80E07B
:1006D000E7CFCF93DF93EC0188819981009711F0E8
:1006E0000E949F0B198218821D821C821B821A8213
:1006F000DF91CF910895EF92FF920F931F93CF93C5
:10070000DF93EC017B018A01BA010E944103811150
:100710000BC0CE010E946903CE01DF91CF911F91E2
:100720000F91FF90EF9008951D830C83B70188818E
:1007300099810E94F90CF0CFFC0180819181009792
:1007400011F00C949F0B08951F920F920FB60F9209
:1007500011242F933F938F939F93AF93BF938091D7
:10076000550190915601A0915701B09158013091D7
:10077000300123E0230F2D3758F50196A11DB11D3F
:10078000209330018093550190935601A093570117
:10079000B093580180912C0190912D01A0912E01D0
:1007A000B0912F010196A11DB11D80932C01909352
:1007B0002D01A0932E01B0932F01BF91AF919F9176
:1007C0008F913F912F910F900FBE0F901F90189512
:1007D00026E8230F0296A11DB11DD2CF1F920F92C2
:1007E0000FB60F9211242F933F934F935F936F9304
:1007F0007F938F939F93AF93BF93EF93FF9389E57D
:1008000091E00E942702FF91EF91BF91AF919F91DC
:100810008F917F916F915F914F913F912F910F90A9
:100820000FBE0F901F9018951F920F920FB60F9248
:1008300011242F938F939F93EF93FF93E09169017E
:10084000F0916A018081E0916F01F091700182FD69
:100850001BC09081809172018F5F8F732091730113
:10086000821741F0E0917201F0E0E75AFE4F958F58
:1008700080937201FF91EF919F918F912F910F9033
:100880000FBE0F901F9018958081F4CF1F920F928A
:100890000FB60F9211242F933F934F935F936F9353
:1008A0007F938F939F93AF93BF93CF93DF93EF93F8
:1008B000FF9380912401C0912501D0E087FF24C0DF
:1008C0001092850010928400809124018F5F8093A4
:1008D000240180912401082E000C990B8C179D0790
:1008E00024F4809124018C30C4F180918400909193
:1008F0008500049680349C4908F47AC08091840075
:1009000090918500049676C080912401082E000CF9
:10091000990B8C179D07C4F6E09124018E2FEE0FE2
:10092000990BFC01EE0FFF1FE80FF91FEF5CFE4F64
:10093000808186FFC9CFE09124018E2FEE0F990BA5
:10094000FC01EE0FFF1FE80FF91FEF5CFE4F8081E7
:1009500060E08F730E941D01B7CF20918400309119
:100960008500E09124018E2FEE0F990BFC01EE0F14
:10097000FF1FE80FF91FEF5CFE4F81819281820F0C
:10098000931F9093890080938800E09124018E2F1B
:10099000EE0F990BFC01EE0FFF1FE80FF91FEF5C44
:1009A000FE4F808186FF11C0E09124018E2FEE0F53
:1009B000990BFC01EE0FFF1FE80FF91FEF5CFE4FD4
:1009C000808161E08F730E941D01FF91EF91DF91A3
:1009D000CF91BF91AF919F918F917F916F915F91D7
:1009E0004F913F912F910F900FBE0F901F90189530
:1009F00080E49CE990938900809388008FEF809336
:100A00002401E3CFFC01909125019C3098F481E012
:100A1000890F809325019083892F90E0FC01EE0FD0
:100A2000FF1FE80FF91FEF5CFE4F88EB9BE09283FE
:100A3000818308958FEF80830895E9E5F1E01382C3
:100A4000128288EE93E0A0E0B0E084839583A683D1
:100A5000B7838AE091E09183808385EC90E095876D
:100A6000848784EC90E09787868780EC90E0918B78
:100A7000808B81EC90E0938B828B82EC90E0958B65
:100A8000848B86EC90E0978B868B118E128E138E62
:100A9000148E8CEF91E00E94020589EF91E00E9494
:100AA000020586EF91E00C940205CF93DF93CDB75A
:100AB000DEB72C970FB6F894DEBF0FBECDBF78948B
:100AC00084B5826084BD84B5816084BD85B5826053
:100AD00085BD85B5816085BD80916E008160809304
:100AE0006E0010928100809181008260809381006D
:100AF000809181008160809381008091800081607D
:100B0000809380008091B10084608093B1008091D7
:100B1000B00081608093B00080917A0084608093FF
:100B20007A0080917A00826080937A0080917A00C6
:100B3000816080937A0080917A00806880937A0047
:100B40001092C100E0916901F0916A0182E0808316
:100B5000E0916501F09166011082E0916701F091EA
:100B600068018FEC808310927101E0916D01F0912A
:100B70006E0186E08083E0916B01F0916C018081D1
:100B800080618083E0916B01F0916C0180818860CD
:100B90008083E0916B01F0916C018081806880839B
:100BA000E0916B01F0916C0180818F7D808362E028
:100BB00070E08CEF91E00E94A50063E070E089EFA7
:100BC00091E00E94A50064E070E086EF91E00E9451
:100BD000A50090E0292E90E0392E83E0A82EB12CBC
:100BE00089E591E00E940702181619060CF0FCC076
:100BF00018861F821A8619861C861B8650E040E0E4
:100C000063E271E0CE0107960E947B030E94B90166
:100C10000B851C8597FD1CC08A309105C9F089831E
:100C20001A820F5F1F4FB801CE0107960E94410341
:100C3000882361F32F8138858B859C85BE016F5F8A
:100C40007F4F820F931F0E94F90C1C870B87DECF0A
:100C5000012B09F4F8C0EF80F8846CE270E0C70162
:100C60000E94EE0C009709F4EEC08C010E191F09CA
:100C700017FDE9C01A8219821C821B821E821D8206
:100C800050E040E063E271E0CE0101960E947B03F8
:100C90008B859C85009719F178018017910708F4DE
:100CA0007C01EF81F885EE0DFF1DD08010826F81F1
:100CB00078856115710509F4B8C0FB010190002029
:100CC000E9F73197AF01461B570BCE0101960E9401
:100CD0007B038F819885E80EF91EF701D082898108
:100CE0009A81009709F4A6C00E944D076B01CE01BE
:100CF00001960E949C030F5F1F4F8B849C8480167B
:100D0000910628F0982D892D4801092F182F1A8255
:100D100019821C821B821E821D8250E040E063E229
:100D200071E0CE0101960E947B03EB84FC848E145B
:100D30009F0420F50E151F0508F47801EF81F88552
:100D4000EE0DFF1D108110826F817885680D791D71
:100D50006115710509F472C0FB0101900020E9F7EB
:100D60003197AF01461B570BCE0101960E947B03C2
:100D70008F819885E80EF91EF701108389819A8189
:100D8000412C512C3201009721F00E9449072B0180
:100D90003C01CE0101960E949C0311E0CE01079612
:100DA0000E949C031123A9F1F1E0CF16D10409F4AC
:100DB0004CC082E0C816D10409F459C0C114D10452
:100DC00099F4C301B2010E94CD0A8091260190914D
:100DD00027010E9432039093270180932601BC01D2
:100DE0008CEF91E00E94B60248E050E068E171E0CB
:100DF00089E591E00E94690142E050E061E271E022
:100E000089E591E00E946901E1E0AE1AB10809F0BC
:100E1000E7CE2114310409F4E0CE0E9413028823A6
:100E200009F4DBCE0E940000D8CECE0101960E94CC
:100E300069034FCF60E070E0CB0158CFCE0101963F
:100E40000E94690395CF10E0A9CFC301B2010E94AF
:100E5000CD0A80912A0190912B010E943203909338
:100E60002B0180932A01BC0189EF91E0BBCFC30124
:100E7000B2010E94CD0A80912801909129010E941F
:100E800032039093290180932801BC0186EF91E001
:100E9000A9CF662777270C9489071F93FC01992710
:100EA0008827BC01E89411911032E9F3193010F051
:100EB0001E30C8F31B3251F01D3249F4689406C04D
:100EC0000E947407610F711D811D911D11911053B6
:100ED0001A30B0F33EF490958095709561957F4FF0
:100EE0008F4F9F4F1F910895592F482F372F262F2F
:100EF000660F771F881F991F660F771F881F991F1E
:100F0000620F731F841F951F660F771F881F991F1D
:100F10000895B0E0A0E0EFE8F7E00C94590A5C0116
:100F20007B016115710519F0DB018D939C9385019F
:100F30000F5F1F4FF501D0818D2F90E00E94D908DF
:100F40006C01892BB9F5DD32B9F50F5F1F4FD50163
:100F50001196DC91C1E05801F1E0AF1AB10843E00D
:100F600050E060E770E0C5010E94E208892B69F556
:100F7000680182E0C80ED11C45E050E06BE670E0ED
:100F8000C6010E94E208892B21F4680197E0C90E8E
:100F9000D11CE114F10419F0D701CD92DC9260E08C
:100FA00070E080E89FEFC111FFC060E070E080E872
:100FB0009FE7FAC05801BBCFDB3229F485010E5FF1
:100FC0001F4FF501D181C0E0C6CF43E050E068E695
:100FD00070E0C5010E94E208892BE9F0F80110E0F9
:100FE00000E020E030E0A9015F01B0ED8B2E8D0E16
:100FF00089E08815C8F19C2E689491F88C2F887030
:10100000C2FF16C0811102C00F5F1F4F3196D5017C
:10101000DC91C92DE9CFE114F10429F00E5F1F4FD7
:10102000F7011183008360E070E080EC9FE7BCC0B3
:10103000882311F001501109A5E0B0E00E94400A98
:101040009B01AC01220F331F441F551F280D311D7A
:10105000411D511D283999E93907490799E1590777
:10106000A8F2C6609C2ED2CFAEEF8A1206C0C3FD96
:101070003CC09C2E689493F8C9CFDF7DD534A9F588
:1010800080818D3239F4C061DF011296818162E086
:1010900070E006C0DF018B32C1F3119661E070E0B1
:1010A00080535D01A61AB70A8A30F8F4E0E8CE163C
:1010B000ECE0DE065CF4B601660F771F660F771F63
:1010C000C60ED71ECC0CDD1CC80ED11C5D01FFEF77
:1010D000AF1ABF0A8C9180538A30A8F1C4FF03C0B5
:1010E000D194C194D1080C0D1D1DC1FF09C0E1149C
:1010F000F10431F081E0A81AB108D701AD92BC9299
:10110000CA01B9010E94FF08C370C33009F49058A6
:101110004B015C0120E030E0A9010E94FA0888231D
:1011200009F440C0CFE9D0E017FF05C01195019543
:101130001109C7E8D0E06E01B8E1CB1AD10880E20E
:10114000E82EF12C0FC0D501B1CFFE0125913591CC
:10115000459154910E191F09C501B4010E946009FF
:101160004B015C01D501C4010E151F0574F72497CE
:10117000F594E794CC16DD06A9F78A2F880F8B2FFC
:10118000881F8F3F49F020E030E0A901C501B4017C
:101190000E94FA08811106C082E290E0909300025A
:1011A0008093FF01C501B401CDB7DEB7ECE00C942C
:1011B000750A91110C94CD09803219F0895085502F
:1011C000C8F70895FB01DC014150504088F08D9133
:1011D00081341CF08B350CF4805E659161341CF019
:1011E0006B350CF4605E861B611171F3990B0895E9
:1011F000881BFCCF0E943C0908F481E00895E89424
:1012000009C097FB3EF490958095709561957F4F4E
:101210008F4F9F4F9923A9F0F92F96E9BB279395FC
:10122000F695879577956795B795F111F8CFFAF40C
:10123000BB0F11F460FF1BC06F5F7F4F8F4F9F4F3D
:1012400016C0882311F096E911C0772321F09EE89B
:10125000872F762F05C0662371F096E8862F70E001
:1012600060E02AF09A95660F771F881FDAF7880FDB
:101270009695879597F90895990F0008550FAA0B31
:10128000E0E8FEEF16161706E807F907C0F0121699
:101290001306E407F50798F0621B730B840B950B9C
:1012A00039F40A2661F0232B242B252B21F40895F1
:1012B0000A2609F4A140A6958FEF811D811D08958E
:1012C0000E9473090C94E7090E94D90938F00E9422
:1012D000E00920F0952311F00C94D0090C94D60964
:1012E00011240C941B0A0E94F80970F3959FC1F316
:1012F000950F50E0551F629FF001729FBB27F00DC4
:10130000B11D639FAA27F00DB11DAA1F649F662718
:10131000B00DA11D661F829F2227B00DA11D621F67
:10132000739FB00DA11D621F839FA00D611D221F21
:10133000749F3327A00D611D231F849F600D211D05
:10134000822F762F6A2F11249F5750409AF0F1F088
:1013500088234AF0EE0FFF1FBB1F661F771F881FF1
:1013600091505040A9F79E3F510580F00C94D00950
:101370000C941B0A5F3FE4F3983ED4F3869577956F
:101380006795B795F795E7959F5FC1F7FE2B880F97
:10139000911D9695879597F908959927882708951F
:1013A00097F99F6780E870E060E008959FEF80EC18
:1013B000089500240A9416161706180609060895BB
:1013C00000240A9412161306140605060895092E21
:1013D0000394000C11F4882352F0BB0F40F4BF2B90
:1013E00011F460FF04C06F5F7F4F8F4F9F4F0895D0
:1013F00057FD9058440F551F59F05F3F71F04795C6
:10140000880F97FB991F61F09F3F79F087950895AA
:10141000121613061406551FF2CF4695F1DF08C0C9
:10142000161617061806991FF1CF869571056105E6
:1014300008940895E894BB2766277727CB0197F98E
:101440000895052E97FB1EF400940E94380A57FD5C
:1014500007D00E948A0A07FC03D04EF40C94380A85
:1014600050954095309521953F4F4F4F5F4F0895D0
:1014700090958095709561957F4F8F4F9F4F089500
:101480000E94AC0AA59F900DB49F900DA49F800D63
:10149000911D11240895B7FF0C94400A0E94400A40
:1014A000821B930B08952F923F924F925F926F92FF
:1014B0007F928F929F92AF92BF92CF92DF92EF92E4
:1014C000FF920F931F93CF93DF93CDB7DEB7CA1B65
:1014D000DB0B0FB6F894DEBF0FBECDBF09942A8890
:1014E000398848885F846E847D848C849B84AA8438
:1014F000B984C884DF80EE80FD800C811B81AA81C5
:10150000B981CE0FD11D0FB6F894DEBF0FBECDBF8F
:10151000ED010895A1E21A2EAA1BBB1BFD010DC00F
:10152000AA1FBB1FEE1FFF1FA217B307E407F50793
:1015300020F0A21BB30BE40BF50B661F771F881F6F
:10154000991F1A9469F760957095809590959B0105
:10155000AC01BD01CF010895A29FB001B39FC001AE
:10156000A39F700D811D1124911DB29F700D811DCF
:101570001124911D0895991B79E004C0991F9617B5
:1015800008F0961B881F7A95C9F780950895EE0F8D
:10159000FF1F0590F491E02D09940E94D40A6894ED
:1015A000B1110C941B0A08950E94000A88F09F57FD
:1015B00098F0B92F9927B751B0F0E1F0660F771F77
:1015C000881F991F1AF0BA95C9F714C0B13091F06D
:1015D0000E941A0AB1E008950C941A0A672F782F16
:1015E0008827B85F39F0B93FCCF386957795679532
:1015F000B395D9F73EF490958095709561957F4F9E
:101600008F4F9F4F08950F931F93CF93DF93823097
:10161000910510F482E090E0E0910302F091040261
:1016200030E020E0B0E0A0E0309799F421153105DA
:1016300009F44AC0281B390B24303105D8F58A81BA
:101640009B816115710589F1FB0193838283FE0102
:1016500011C0408151810281138148175907E0F080
:101660004817590799F4109761F012960C93129746
:1016700013961C933296CF01DF91CF911F910F915A
:1016800008950093030210930402F4CF211531054D
:1016900051F04217530738F0A901DB019A01BD014F
:1016A000DF01F801C1CFEF01F9CF909304028093DD
:1016B0000302CDCFFE01E20FF31F819391932250DD
:1016C000310939832883D7CF20910102309102025A
:1016D000232B41F420910201309103013093020247
:1016E0002093010220910001309101012115310563
:1016F00041F42DB73EB74091040150910501241BE0
:10170000350BE0910102F0910202E217F307A0F419
:101710002E1B3F0B2817390778F0AC014E5F5F4F47
:101720002417350748F04E0F5F1F50930202409375
:101730000102819391939FCFF0E0E0E09CCFCF93A3
:10174000DF930097E9F0FC01329713821282A09197
:101750000302B0910402ED0130E020E01097A1F403
:1017600020813181820F931F20910102309102026A
:101770002817390709F061C0F0930202E0930102D3
:10178000DF91CF910895EA01CE17DF07E8F54A818E
:101790005B819E0141155105B1F7E901FB83EA83A5
:1017A00049915991C40FD51FEC17FD0761F4808151
:1017B00091810296840F951FE90199838883828124
:1017C00093819B838A83F0E0E0E012968D919C9157
:1017D00013970097B9F52D913C911197CD01029681
:1017E000820F931F209101023091020228173907BE
:1017F00039F6309751F51092040210920302B0931B
:101800000202A0930102BCCFD383C28340815181E5
:10181000840F951FC817D90761F44E5F5F4F888109
:101820009981480F591F518340838A819B819383FB
:1018300082832115310509F0B0CFF0930402E093C3
:1018400003029ECFFD01DC01C0CF13821282D7CFED
:10185000B0E0A0E0EEE2FCE00C94550A8C010097A9
:1018600051F4CB010E94030B8C01C801CDB7DEB748
:10187000E0E10C94710AFC01E60FF71F9C01225075
:101880003109E217F30708F49DC0D901CD91DC912D
:101890001197C617D70798F0C530D10530F3CE01A0
:1018A00004978617970708F3C61BD70B2297C19397
:1018B000D1936D937C93CF010E949F0BD6CF5B0198
:1018C000AC1ABD0A4C018C0E9D1EA0910302B09172
:1018D0000402512C412CF12CE12C109731F5809110
:1018E0000102909102028815990509F05CC0461624
:1018F000570608F058C080910001909101010097AF
:1019000041F48DB79EB74091040150910501841BAD
:10191000950BE817F90708F055C0F0930202E09321
:101920000102F90171836083A0CF8D919C91119781
:1019300012966C90129713967C901397A815B90580
:1019400059F56C0142E0C40ED11CCA14DB0420F12D
:10195000AC014A195B09DA011296159780F0628290
:10196000738251834083D9016D937C93E114F10418
:1019700071F0D7011396FC93EE93129776CF2296CF
:101980008C0F9D1FF90191838083F301EFCFF093BA
:101990000402E093030269CF4816590608F42C01AB
:1019A0007D01D3019ACFCB010E94030B7C010097EC
:1019B00049F0AE01B8010E94E50CC8010E949F0BDE
:1019C000870153CF10E000E050CFFB01DC0102C0E3
:1019D00001900D9241505040D8F70895FC0181913B
:1019E000861721F08823D9F7992708953197CF01D9
:1019F0000895FB01DC0101900D920020E1F70895AC
:041A0000F894FFCF88
:101A040000000502800000000000490269019601FF
:101A140096020702A501F901636F6D706C65746528
:041A2400000D0A00A7
:00000001FF
